{
  "contractName": "ArrayMapTracksItemState",
  "abi": [
    {
      "constant": true,
      "inputs": [
        {
          "name": "",
          "type": "bytes32"
        },
        {
          "name": "",
          "type": "uint256"
        }
      ],
      "name": "itemRecords",
      "outputs": [
        {
          "name": "barcode",
          "type": "uint256"
        },
        {
          "name": "locationCode",
          "type": "uint256"
        },
        {
          "name": "timeStamp",
          "type": "uint256"
        }
      ],
      "payable": false,
      "stateMutability": "view",
      "type": "function"
    },
    {
      "constant": false,
      "inputs": [
        {
          "name": "_identifier",
          "type": "string"
        },
        {
          "name": "_barcode",
          "type": "uint256"
        },
        {
          "name": "_locationCode",
          "type": "uint256"
        }
      ],
      "name": "updateOrAddItem",
      "outputs": [],
      "payable": false,
      "stateMutability": "nonpayable",
      "type": "function"
    },
    {
      "constant": true,
      "inputs": [
        {
          "name": "_identifier",
          "type": "string"
        },
        {
          "name": "_index",
          "type": "uint256"
        }
      ],
      "name": "getState",
      "outputs": [
        {
          "name": "",
          "type": "uint256"
        },
        {
          "name": "",
          "type": "uint256"
        },
        {
          "name": "",
          "type": "uint256"
        }
      ],
      "payable": false,
      "stateMutability": "view",
      "type": "function"
    }
  ],
  "bytecode": "0x608060405234801561001057600080fd5b50610519806100206000396000f300608060405260043610610057576000357c0100000000000000000000000000000000000000000000000000000000900463ffffffff1680630d156c531461005c57806326a17f85146100b95780633664115614610136575b600080fd5b34801561006857600080fd5b506100956004803603810190808035600019169060200190929190803590602001909291905050506101cb565b60405180848152602001838152602001828152602001935050505060405180910390f35b3480156100c557600080fd5b50610134600480360381019080803590602001908201803590602001908080601f01602080910402602001604051908101604052809392919081815260200183838082843782019150505050505091929192908035906020019092919080359060200190929190505050610211565b005b34801561014257600080fd5b506101a7600480360381019080803590602001908201803590602001908080601f016020809104026020016040519081016040528093929190818152602001838380828437820191505050505050919291929080359060200190929190505050610372565b60405180848152602001838152602001828152602001935050505060405180910390f35b6000602052816000526040600020818154811015156101e657fe5b9060005260206000209060030201600091509150508060000154908060010154908060020154905083565b6102196104cb565b606060405190810160405280848152602001838152602001428152509050600080856040516020018082805190602001908083835b602083101515610273578051825260208201915060208101905060208303925061024e565b6001836020036101000a0380198251168184511680821785525050505050509050019150506040516020818303038152906040526040518082805190602001908083835b6020831015156102dc57805182526020820191506020810190506020830392506102b7565b6001836020036101000a038019825116818451168082178552505050505050905001915050604051809103902060001916600019168152602001908152602001600020819080600181540180825580915050906001820390600052602060002090600302016000909192909190915060008201518160000155602082015181600101556040820151816002015550505050505050565b600080600061037f6104cb565b600080876040516020018082805190602001908083835b6020831015156103bb5780518252602082019150602081019050602083039250610396565b6001836020036101000a0380198251168184511680821785525050505050509050019150506040516020818303038152906040526040518082805190602001908083835b60208310151561042457805182526020820191506020810190506020830392506103ff565b6001836020036101000a0380198251168184511680821785525050505050509050019150506040518091039020600019166000191681526020019081526020016000208581548110151561047457fe5b90600052602060002090600302016060604051908101604052908160008201548152602001600182015481526020016002820154815250509050806000015181602001518260400151935093509350509250925092565b60606040519081016040528060008152602001600081526020016000815250905600a165627a7a72305820bf814ba18a3795218c2e2b77602e480e24abb5e6ca80ac3a25814cfcdbcc6aca0029",
  "source": "pragma solidity ^0.4.24;\r\n\r\n// This is a simple example of a smart contract where the smart contract holds the\r\n// complete state history of each item using a mapping of unique identifiers to \r\n// dynamically sized arrays of item states.\r\n\r\ncontract ArrayMapTracksItemState {\r\n\r\n    struct itemState {\r\n        uint256 barcode;      // The general identifier, what is this item?\r\n        uint256 locationCode; // Where is this item?\r\n        uint256 timeStamp;    // When was this?\r\n    }\r\n    \r\n    // A mapping of unique identifier hashes of items to their records.\r\n    mapping(bytes32 => itemState[]) public itemRecords;\r\n    \r\n    function updateOrAddItem(string _identifier, uint256 _barcode, uint256 _locationCode) public {\r\n        \r\n        itemState memory newIS = itemState({barcode:_barcode, locationCode:_locationCode, timeStamp: block.timestamp});\r\n    \r\n        itemRecords[keccak256(abi.encodePacked(_identifier))].push(newIS);\r\n    }\r\n\r\n    function getState(string _identifier, uint256 _index) public view returns (uint256, uint256, uint256) {\r\n        itemState memory tempIS = itemRecords[keccak256(abi.encodePacked(_identifier))][_index];\r\n        return (tempIS.barcode, tempIS.locationCode, tempIS.timeStamp);\r\n    }\r\n\r\n}\r\n",
  "sourcePath": "C:\\Users\\reson\\Documents\\GitHub\\blockchainProvenance\\contracts\\ArrayMapTracksItemState.sol",
  "compiler": {
    "name": "solc",
    "version": "0.4.24+commit.e67f0147.Emscripten.clang"
  },
  "schemaVersion": "2.0.1",
  "updatedAt": "2018-10-15T05:10:02.185Z"
}