{
  "contractName": "ArrayMapTracksItemState",
  "abi": [
    {
      "constant": true,
      "inputs": [
        {
          "name": "",
          "type": "bytes32"
        },
        {
          "name": "",
          "type": "uint256"
        }
      ],
      "name": "itemRecords",
      "outputs": [
        {
          "name": "barcode",
          "type": "uint256"
        },
        {
          "name": "locationCode",
          "type": "uint256"
        },
        {
          "name": "timeStamp",
          "type": "uint256"
        },
        {
          "name": "newValue",
          "type": "uint256"
        }
      ],
      "payable": false,
      "stateMutability": "view",
      "type": "function"
    },
    {
      "constant": false,
      "inputs": [
        {
          "name": "_identifier",
          "type": "string"
        },
        {
          "name": "_barcode",
          "type": "uint256"
        },
        {
          "name": "_locationCode",
          "type": "uint256"
        },
        {
          "name": "_newValue",
          "type": "uint256"
        }
      ],
      "name": "updateOrAddItem",
      "outputs": [],
      "payable": false,
      "stateMutability": "nonpayable",
      "type": "function"
    },
    {
      "constant": true,
      "inputs": [
        {
          "name": "_identifier",
          "type": "string"
        },
        {
          "name": "_index",
          "type": "uint256"
        }
      ],
      "name": "getState",
      "outputs": [
        {
          "name": "",
          "type": "uint256"
        },
        {
          "name": "",
          "type": "uint256"
        },
        {
          "name": "",
          "type": "uint256"
        },
        {
          "name": "",
          "type": "uint256"
        }
      ],
      "payable": false,
      "stateMutability": "view",
      "type": "function"
    }
  ],
  "bytecode": "0x608060405234801561001057600080fd5b50610563806100206000396000f300608060405260043610610057576000357c0100000000000000000000000000000000000000000000000000000000900463ffffffff1680630d156c531461005c57806336641156146100c0578063f09f240e1461015c575b600080fd5b34801561006857600080fd5b506100956004803603810190808035600019169060200190929190803590602001909291905050506101e3565b6040518085815260200184815260200183815260200182815260200194505050505060405180910390f35b3480156100cc57600080fd5b50610131600480360381019080803590602001908201803590602001908080601f01602080910402602001604051908101604052809392919081815260200183838082843782019150505050505091929192908035906020019092919050505061022f565b6040518085815260200184815260200183815260200182815260200194505050505060405180910390f35b34801561016857600080fd5b506101e1600480360381019080803590602001908201803590602001908080601f016020809104026020016040519081016040528093929190818152602001838380828437820191505050505050919291929080359060200190929190803590602001909291908035906020019092919050505061039c565b005b6000602052816000526040600020818154811015156101fe57fe5b9060005260206000209060040201600091509150508060000154908060010154908060020154908060030154905084565b60008060008061023d61050e565b600080886040516020018082805190602001908083835b6020831015156102795780518252602082019150602081019050602083039250610254565b6001836020036101000a0380198251168184511680821785525050505050509050019150506040516020818303038152906040526040518082805190602001908083835b6020831015156102e257805182526020820191506020810190506020830392506102bd565b6001836020036101000a0380198251168184511680821785525050505050509050019150506040518091039020600019166000191681526020019081526020016000208681548110151561033257fe5b9060005260206000209060040201608060405190810160405290816000820154815260200160018201548152602001600282015481526020016003820154815250509050806000015181602001518260400151836060015194509450945094505092959194509250565b6103a461050e565b608060405190810160405280858152602001848152602001428152602001838152509050600080866040516020018082805190602001908083835b60208310151561040457805182526020820191506020810190506020830392506103df565b6001836020036101000a0380198251168184511680821785525050505050509050019150506040516020818303038152906040526040518082805190602001908083835b60208310151561046d5780518252602082019150602081019050602083039250610448565b6001836020036101000a0380198251168184511680821785525050505050509050019150506040518091039020600019166000191681526020019081526020016000208190806001815401808255809150509060018203906000526020600020906004020160009091929091909150600082015181600001556020820151816001015560408201518160020155606082015181600301555050505050505050565b6080604051908101604052806000815260200160008152602001600081526020016000815250905600a165627a7a72305820a0f4430ccb4c062efd38b81e291512d78d4610065349f4fa43ca7a7ecb44aea10029",
  "source": "pragma solidity ^0.4.24;\r\n\r\n// This is a simple example of a smart contract where the smart contract holds the\r\n// complete state history of each item using a mapping of unique identifiers to \r\n// dynamically sized arrays of item states.\r\n\r\ncontract ArrayMapTracksItemState {\r\n\r\n    struct itemState {\r\n        uint256 barcode;      // The general identifier, what is this item?\r\n        uint256 locationCode; // Where is this item?\r\n        uint256 timeStamp;    // When was this?\r\n        uint256 newValue;\r\n    }\r\n    \r\n    // A mapping of unique identifier hashes of items to their records.\r\n    mapping(bytes32 => itemState[]) public itemRecords;\r\n    \r\n    function updateOrAddItem(string _identifier, uint256 _barcode, uint256 _locationCode, uint256 _newValue) public {\r\n        \r\n        itemState memory newIS = itemState({barcode:_barcode, locationCode:_locationCode, timeStamp: block.timestamp, newValue: _newValue});\r\n    \r\n        itemRecords[keccak256(abi.encodePacked(_identifier))].push(newIS);\r\n    }\r\n\r\n    function getState(string _identifier, uint256 _index) public view returns (uint256, uint256, uint256, uint256) {\r\n        itemState memory tempIS = itemRecords[keccak256(abi.encodePacked(_identifier))][_index];\r\n        return (tempIS.barcode, tempIS.locationCode, tempIS.timeStamp, tempIS.newValue);\r\n    }\r\n\r\n}\r\n",
  "sourcePath": "C:\\Users\\reson\\Documents\\GitHub\\blockchainProvenance\\contracts\\ArrayMapTracksItemState.sol",
  "compiler": {
    "name": "solc",
    "version": "0.4.24+commit.e67f0147.Emscripten.clang"
  },
  "schemaVersion": "2.0.1",
  "updatedAt": "2018-10-16T20:22:28.423Z"
}