{
  "contractName": "ArrayTracksItemState",
  "abi": [
    {
      "constant": true,
      "inputs": [
        {
          "name": "",
          "type": "uint256"
        }
      ],
      "name": "itemRecords",
      "outputs": [
        {
          "name": "barcode",
          "type": "uint256"
        },
        {
          "name": "locationCode",
          "type": "uint256"
        },
        {
          "name": "timeStamp",
          "type": "uint256"
        }
      ],
      "payable": false,
      "stateMutability": "view",
      "type": "function"
    },
    {
      "constant": true,
      "inputs": [
        {
          "name": "",
          "type": "bytes32"
        }
      ],
      "name": "identifierMap",
      "outputs": [
        {
          "name": "",
          "type": "uint256"
        }
      ],
      "payable": false,
      "stateMutability": "view",
      "type": "function"
    },
    {
      "constant": false,
      "inputs": [
        {
          "name": "_identifier",
          "type": "string"
        },
        {
          "name": "_barcode",
          "type": "uint256"
        },
        {
          "name": "_locationCode",
          "type": "uint256"
        },
        {
          "name": "_timeStamp",
          "type": "uint256"
        }
      ],
      "name": "updateOrAddItem",
      "outputs": [],
      "payable": false,
      "stateMutability": "nonpayable",
      "type": "function"
    }
  ],
  "bytecode": "0x608060405234801561001057600080fd5b50610292806100206000396000f300608060405260043610610057576000357c0100000000000000000000000000000000000000000000000000000000900463ffffffff1680630b6b50631461005c578063ac538279146100ab578063f09f240e146100f0575b600080fd5b34801561006857600080fd5b5061008760048036038101908080359060200190929190505050610177565b60405180848152602001838152602001828152602001935050505060405180910390f35b3480156100b757600080fd5b506100da60048036038101908080356000191690602001909291905050506101b0565b6040518082815260200191505060405180910390f35b3480156100fc57600080fd5b50610175600480360381019080803590602001908201803590602001908080601f01602080910402602001604051908101604052809392919081815260200183838082843782019150505050505091929192908035906020019092919080359060200190929190803590602001909291905050506101c8565b005b60018181548110151561018657fe5b90600052602060002090600302016000915090508060000154908060010154908060020154905083565b60006020528060005260406000206000915090505481565b6101d0610244565b606060405190810160405280858152602001848152602001838152509050600181908060018154018082558091505090600182039060005260206000209060030201600090919290919091506000820151816000015560208201518160010155604082015181600201555050505050505050565b60606040519081016040528060008152602001600081526020016000815250905600a165627a7a723058206d2363c697bdf344bbca30fb544ea82e6caee37861e6b7707fae9225d27239930029",
  "source": "pragma solidity ^0.4.24;\r\n\r\n// This is a simple example of a smart contract where the smart contract holds the\r\n// complete state history of each item using a mapping of unique identifiers to \r\n// dynamically sized arrays of item states.\r\n\r\ncontract ArrayTracksItemState {\r\n\r\n    struct itemState {\r\n        uint256 barcode;      // The general identifier, what is this item?\r\n        uint256 locationCode; // Where is this item?\r\n        uint256 timeStamp;    // When was this?\r\n    }\r\n    \r\n    mapping(bytes32 => uint256) public identifierMap;\r\n    itemState[] public itemRecords;\r\n    \r\n    function updateOrAddItem(string _identifier, uint256 _barcode, uint256 _locationCode, uint256 _timeStamp) public {\r\n        \r\n        itemState memory newIS = itemState({barcode:_barcode, locationCode:_locationCode, timeStamp:_timeStamp});\r\n    \r\n        itemRecords.push(newIS);\r\n    }\r\n\r\n}\r\n",
  "sourcePath": "C:\\Users\\reson\\Documents\\GitHub\\blockchainProvenance\\contracts\\ArrayTracksItemState.sol",
  "compiler": {
    "name": "solc",
    "version": "0.4.24+commit.e67f0147.Emscripten.clang"
  },
  "schemaVersion": "2.0.1",
  "updatedAt": "2018-10-16T20:19:50.475Z"
}