{
  "contractName": "BlockchainTracksItemState",
  "abi": [
    {
      "constant": true,
      "inputs": [
        {
          "name": "",
          "type": "bytes32"
        }
      ],
      "name": "itemRecords",
      "outputs": [
        {
          "name": "barcode",
          "type": "uint256"
        },
        {
          "name": "locationCode",
          "type": "uint256"
        },
        {
          "name": "timeStamp",
          "type": "uint256"
        }
      ],
      "payable": false,
      "stateMutability": "view",
      "type": "function"
    },
    {
      "constant": false,
      "inputs": [
        {
          "name": "_identifier",
          "type": "string"
        },
        {
          "name": "_barcode",
          "type": "uint256"
        },
        {
          "name": "_locationCode",
          "type": "uint256"
        },
        {
          "name": "_timeStamp",
          "type": "uint256"
        }
      ],
      "name": "updateOrAddItem",
      "outputs": [],
      "payable": false,
      "stateMutability": "nonpayable",
      "type": "function"
    }
  ],
  "bytecode": "0x608060405234801561001057600080fd5b506102da806100206000396000f30060806040526004361061004c576000357c0100000000000000000000000000000000000000000000000000000000900463ffffffff1680634cc14e6914610051578063f09f240e146100a4575b600080fd5b34801561005d57600080fd5b50610080600480360381019080803560001916906020019092919050505061012b565b60405180848152602001838152602001828152602001935050505060405180910390f35b3480156100b057600080fd5b50610129600480360381019080803590602001908201803590602001908080601f0160208091040260200160405190810160405280939291908181526020018383808284378201915050505050509192919290803590602001909291908035906020019092919080359060200190929190505050610155565b005b60006020528060005260406000206000915090508060000154908060010154908060020154905083565b61015d61028c565b60606040519081016040528085815260200184815260200183815250905080600080876040516020018082805190602001908083835b6020831015156101b85780518252602082019150602081019050602083039250610193565b6001836020036101000a0380198251168184511680821785525050505050509050019150506040516020818303038152906040526040518082805190602001908083835b60208310151561022157805182526020820191506020810190506020830392506101fc565b6001836020036101000a0380198251168184511680821785525050505050509050019150506040518091039020600019166000191681526020019081526020016000206000820151816000015560208201518160010155604082015181600201559050505050505050565b60606040519081016040528060008152602001600081526020016000815250905600a165627a7a72305820ac55c2306c41d8fbd5e63252fc553c4f41fc42351a1fbb69a7ef99e8f1e6b1e90029",
  "source": "pragma solidity ^0.4.24;\r\n\r\n// This is a simple example of a smart contract where the blockchain tracks all item state.\r\n// This means the smart contract simply holds the current state of each item and would \r\n// overwrite it when a new state is added. Then a front-end would sift through previous \r\n// transactions to build the history of the item. This is desirable as it puts \r\n// a smaller amount of data on the blockchain compared to the smart contract holding all state \r\n// history for each item, however we have to process more on the front-end.\r\n\r\ncontract BlockchainTracksItemState {\r\n\r\n    struct itemState {\r\n        uint256 barcode;      // The general identifier, what is this item?\r\n        uint256 locationCode; // Where is this item?\r\n        uint256 timeStamp;    // When was this?\r\n    }\r\n    \r\n    // A mapping of unique identifier hashes of items to current item state.\r\n    mapping(bytes32 => itemState) public itemRecords;\r\n    \r\n    function updateOrAddItem(string _identifier, uint256 _barcode, uint256 _locationCode, uint256 _timeStamp) public {\r\n        \r\n        itemState memory newIS = itemState({barcode:_barcode, locationCode:_locationCode, timeStamp:_timeStamp});\r\n    \r\n        itemRecords[keccak256(abi.encodePacked(_identifier))] = newIS;\r\n    }\r\n\r\n}\r\n",
  "sourcePath": "C:\\Users\\reson\\Documents\\GitHub\\blockchainProvenance\\contracts\\BlockchainTracksItemState.sol",
  "compiler": {
    "name": "solc",
    "version": "0.4.24+commit.e67f0147.Emscripten.clang"
  },
  "schemaVersion": "2.0.1",
  "updatedAt": "2018-10-08T04:12:05.430Z"
}