{
  "contractName": "SimpleStorage",
  "abi": [
    {
      "constant": true,
      "inputs": [],
      "name": "storedData",
      "outputs": [
        {
          "name": "",
          "type": "uint256"
        }
      ],
      "payable": false,
      "stateMutability": "view",
      "type": "function"
    },
    {
      "anonymous": false,
      "inputs": [
        {
          "indexed": false,
          "name": "_message",
          "type": "string"
        }
      ],
      "name": "StorageSet",
      "type": "event"
    },
    {
      "constant": false,
      "inputs": [
        {
          "name": "x",
          "type": "uint256"
        }
      ],
      "name": "set",
      "outputs": [],
      "payable": false,
      "stateMutability": "nonpayable",
      "type": "function"
    }
  ],
  "bytecode": "0x6080604052601e60005534801561001557600080fd5b5061014d806100256000396000f30060806040526004361061004c576000357c0100000000000000000000000000000000000000000000000000000000900463ffffffff1680632a1afcd91461005157806360fe47b11461007c575b600080fd5b34801561005d57600080fd5b506100666100a9565b6040518082815260200191505060405180910390f35b34801561008857600080fd5b506100a7600480360381019080803590602001909291905050506100af565b005b60005481565b806000819055507f60cdc157ca4737a5d39a0e107532616e7bf6946e615228812c7f9bc9f81797a66040518080602001828103825260198152602001807f446174612073746f726564207375636365737366756c6c79210000000000000081525060200191505060405180910390a1505600a165627a7a723058200b4abdb026d786d61bf64c118a4b363f6b4180e4ae9d42cf3c66e1cc6c3e50520029",
  "source": "pragma solidity ^0.4.24;\r\n\r\ncontract SimpleStorage {\r\n  event StorageSet(\r\n    string _message\r\n  );\r\n\r\n  uint public storedData = 30;\r\n\r\n  function set(uint x) public {\r\n    storedData = x;\r\n\r\n    emit StorageSet(\"Data stored successfully!\");\r\n  }\r\n}\r\n",
  "sourcePath": "C:\\Users\\reson\\Documents\\GitHub\\blockchainProvenance\\contracts\\SimpleStorage.sol",
  "compiler": {
    "name": "solc",
    "version": "0.4.24+commit.e67f0147.Emscripten.clang"
  },
  "schemaVersion": "2.0.1",
  "updatedAt": "2018-10-16T20:22:28.413Z"
}