{
  "contractName": "SmartContractTracksItemState",
  "abi": [
    {
      "constant": true,
      "inputs": [
        {
          "name": "",
          "type": "bytes32"
        },
        {
          "name": "",
          "type": "uint256"
        }
      ],
      "name": "itemRecords",
      "outputs": [
        {
          "name": "barcode",
          "type": "uint256"
        },
        {
          "name": "locationCode",
          "type": "uint256"
        },
        {
          "name": "timeStamp",
          "type": "uint256"
        }
      ],
      "payable": false,
      "stateMutability": "view",
      "type": "function"
    },
    {
      "constant": false,
      "inputs": [
        {
          "name": "_identifier",
          "type": "string"
        },
        {
          "name": "_barcode",
          "type": "uint256"
        },
        {
          "name": "_locationCode",
          "type": "uint256"
        },
        {
          "name": "_timeStamp",
          "type": "uint256"
        }
      ],
      "name": "updateOrAddItem",
      "outputs": [],
      "payable": false,
      "stateMutability": "nonpayable",
      "type": "function"
    }
  ],
  "bytecode": "0x608060405234801561001057600080fd5b5061032b806100206000396000f30060806040526004361061004c576000357c0100000000000000000000000000000000000000000000000000000000900463ffffffff1680630d156c5314610051578063f09f240e146100ae575b600080fd5b34801561005d57600080fd5b5061008a600480360381019080803560001916906020019092919080359060200190929190505050610135565b60405180848152602001838152602001828152602001935050505060405180910390f35b3480156100ba57600080fd5b50610133600480360381019080803590602001908201803590602001908080601f016020809104026020016040519081016040528093929190818152602001838380828437820191505050505050919291929080359060200190929190803590602001909291908035906020019092919050505061017b565b005b60006020528160005260406000208181548110151561015057fe5b9060005260206000209060030201600091509150508060000154908060010154908060020154905083565b6101836102dd565b606060405190810160405280858152602001848152602001838152509050600080866040516020018082805190602001908083835b6020831015156101dd57805182526020820191506020810190506020830392506101b8565b6001836020036101000a0380198251168184511680821785525050505050509050019150506040516020818303038152906040526040518082805190602001908083835b6020831015156102465780518252602082019150602081019050602083039250610221565b6001836020036101000a03801982511681845116808217855250505050505090500191505060405180910390206000191660001916815260200190815260200160002081908060018154018082558091505090600182039060005260206000209060030201600090919290919091506000820151816000015560208201518160010155604082015181600201555050505050505050565b60606040519081016040528060008152602001600081526020016000815250905600a165627a7a723058207ca1c1f6a5180a65de060c1f7142a1c55254e366bedfcd73b0bc779832f6076b0029",
  "source": "pragma solidity ^0.4.24;\r\n\r\n// This is a simple example of a smart contract where the smart contract holds the\r\n// complete state history of each item using a mapping of unique identifiers to \r\n// dynamically sized arrays of item states.\r\n\r\ncontract SmartContractTracksItemState {\r\n\r\n    struct itemState {\r\n        uint256 barcode;      // The general identifier, what is this item?\r\n        uint256 locationCode; // Where is this item?\r\n        uint256 timeStamp;    // When was this?\r\n    }\r\n    \r\n    // A mapping of unique identifier hashes of items to their records.\r\n    mapping(bytes32 => itemState[]) public itemRecords;\r\n    \r\n    function updateOrAddItem(string _identifier, uint256 _barcode, uint256 _locationCode, uint256 _timeStamp) public {\r\n        \r\n        itemState memory newIS = itemState({barcode:_barcode, locationCode:_locationCode, timeStamp:_timeStamp});\r\n    \r\n        itemRecords[keccak256(abi.encodePacked(_identifier))].push(newIS);\r\n    }\r\n\r\n}\r\n",
  "sourcePath": "C:\\Users\\reson\\Documents\\GitHub\\blockchainProvenance\\contracts\\SmartContractTracksItemState.sol",
  "compiler": {
    "name": "solc",
    "version": "0.4.24+commit.e67f0147.Emscripten.clang"
  },
  "schemaVersion": "2.0.1",
  "updatedAt": "2018-10-08T04:12:05.431Z"
}