{
  "contractName": "ItemHoldsAllState",
  "abi": [
    {
      "constant": true,
      "inputs": [
        {
          "name": "",
          "type": "bytes32"
        },
        {
          "name": "",
          "type": "uint256"
        }
      ],
      "name": "itemRecords",
      "outputs": [
        {
          "name": "barcode",
          "type": "uint256"
        },
        {
          "name": "locationCode",
          "type": "uint256"
        },
        {
          "name": "timeStamp",
          "type": "uint256"
        }
      ],
      "payable": false,
      "stateMutability": "view",
      "type": "function"
    },
    {
      "constant": false,
      "inputs": [
        {
          "name": "_identifier",
          "type": "string"
        },
        {
          "name": "_barcode",
          "type": "uint256"
        },
        {
          "name": "_locationCode",
          "type": "uint256"
        },
        {
          "name": "_timeStamp",
          "type": "uint256"
        }
      ],
      "name": "createItem",
      "outputs": [],
      "payable": false,
      "stateMutability": "nonpayable",
      "type": "function"
    },
    {
      "constant": true,
      "inputs": [
        {
          "name": "_identifier",
          "type": "string"
        }
      ],
      "name": "getItemBarcode",
      "outputs": [
        {
          "name": "barcode",
          "type": "uint256"
        }
      ],
      "payable": false,
      "stateMutability": "view",
      "type": "function"
    }
  ],
  "bytecode": "0x608060405234801561001057600080fd5b506104c4806100206000396000f300608060405260043610610057576000357c0100000000000000000000000000000000000000000000000000000000900463ffffffff1680630d156c531461005c5780631d451f0a146100b957806379c5cb1c14610136575b600080fd5b34801561006857600080fd5b506100956004803603810190808035600019169060200190929190803590602001909291905050506101bd565b60405180848152602001838152602001828152602001935050505060405180910390f35b3480156100c557600080fd5b50610120600480360381019080803590602001908201803590602001908080601f0160208091040260200160405190810160405280939291908181526020018383808284378201915050505050509192919290505050610203565b6040518082815260200191505060405180910390f35b34801561014257600080fd5b506101bb600480360381019080803590602001908201803590602001908080601f0160208091040260200160405190810160405280939291908181526020018383808284378201915050505050509192919290803590602001909291908035906020019092919080359060200190929190505050610314565b005b6000602052816000526040600020818154811015156101d857fe5b9060005260206000209060030201600091509150508060000154908060010154908060020154905083565b6000806000836040516020018082805190602001908083835b602083101515610241578051825260208201915060208101905060208303925061021c565b6001836020036101000a0380198251168184511680821785525050505050509050019150506040516020818303038152906040526040518082805190602001908083835b6020831015156102aa5780518252602082019150602081019050602083039250610285565b6001836020036101000a03801982511681845116808217855250505050505090500191505060405180910390206000191660001916815260200190815260200160002060008154811015156102fb57fe5b9060005260206000209060030201600001549050919050565b61031c610476565b606060405190810160405280858152602001848152602001838152509050600080866040516020018082805190602001908083835b6020831015156103765780518252602082019150602081019050602083039250610351565b6001836020036101000a0380198251168184511680821785525050505050509050019150506040516020818303038152906040526040518082805190602001908083835b6020831015156103df57805182526020820191506020810190506020830392506103ba565b6001836020036101000a03801982511681845116808217855250505050505090500191505060405180910390206000191660001916815260200190815260200160002081908060018154018082558091505090600182039060005260206000209060030201600090919290919091506000820151816000015560208201518160010155604082015181600201555050505050505050565b60606040519081016040528060008152602001600081526020016000815250905600a165627a7a72305820ef31c34ba6ad1cba2f94ecea88997d5218ffee9ff2adac1146703328fd7276bc0029",
  "source": "pragma solidity ^0.4.24;\n\n// This is a simple example of a smart contract where each item holds the\n// complete state history of the item being tracked.\n\ncontract ItemHoldsAllState {\n\n    struct itemState {\n        uint256 barcode;      // The general identifier, what is this item?\n        uint256 locationCode; // Where is this item?\n        uint256 timeStamp;    // When was this?\n    }\n    \n    // A mapping of unique identifier hashes of items to their records.\n    mapping(bytes32 => itemState[]) public itemRecords;\n    \n    function createItem(string _identifier, uint256 _barcode, uint256 _locationCode, uint256 _timeStamp) public {\n        \n        itemState memory newIS = itemState({barcode:_barcode, locationCode:_locationCode, timeStamp:_timeStamp});\n    \n        itemRecords[keccak256(abi.encodePacked(_identifier))].push(newIS);\n    }\n\n    function getItemBarcode(string _identifier) public view returns (uint256 barcode) {\n        \n        return itemRecords[keccak256(abi.encodePacked(_identifier))][0].barcode;\n    }\n}\n",
  "sourcePath": "/home/vm/Documents/blockchain/blockchainProvenance/contracts/ItemHoldsAllState.sol",
  "compiler": {
    "name": "solc",
    "version": "0.4.24+commit.e67f0147.Emscripten.clang"
  },
  "schemaVersion": "2.0.1",
  "updatedAt": "2018-09-23T06:07:08.841Z"
}